:100000000C9483000C94B4000C94B4000C94B400D1
:100010000C94B4000C94B4000C94B4000C94B40090
:100020000C94B4000C9471020C94B4000C94B400C1
:100030000C94B4000C94B4000C94B4000C94B40070
:100040000C94B4000C94B4000C94B4000C94B40060
:100050000C94B4000C94B4000C94B4000C94B40050
:100060000C94B4000C94EF010C94C5010C94B400F2
:100070000C94B4000C9425020C94B4000C94B400BD
:100080000C94B4000C94B4000C94B4000C94B40020
:100090000C94B4000C94B4000C94B4000C94B40010
:1000A0000C94B4000C94B4000C94B4000C94B40000
:1000B0000C94B4000C94B4000C94B4000C94B400F0
:1000C0000C94B4000C94B4000C94B4000C94B400E0
:1000D0000C94B4000C94B4000C94B4000C94B400D0
:1000E0000C94B4000C9454010C9404010C94F5008D
:1000F0000C9418010C94B2020C9426010C94C700C5
:100100000C94A101B20211241FBECFEFD1E2DEBFD9
:10011000CDBF00E00CBF12E0A0E0B2E0E8E9F7E0FC
:1001200000E00BBF02C007900D92A231B107D9F7D2
:1001300022E0A2E1B2E001C01D92A13BB207E1F7CB
:1001400010E0C3E8D0E000E006C021970109802F4D
:10015000FE010E94BD03C238D10780E00807A9F75D
:100160000E94DF020C94CA030C940000B19A109212
:1001700085001092840080E090E0803D27E09207A7
:1001800029F0B19BFACF0196B19AF7CF0895CF929B
:10019000DF92EF92FF920F931F93CF93DF936C0147
:1001A0007A018B01C0E0D0E0CE15DF0581F0D801E7
:1001B0006D918D01D601ED91FC910190F081E02DC2
:1001C000C6011995892B11F02196EECF7E01C7014A
:1001D000DF91CF911F910F91FF90EF90DF90CF9023
:1001E0000895089580E090E00895FC01538D448DBA
:1001F000252F30E0842F90E0821B930B541710F0D2
:10020000CF96089501970895FC01918D828D9817DE
:1002100061F0828DDF01A80FB11D5D968C91928DEA
:100220009F5F9F73928F90E008958FEF9FEF0895E7
:10023000FC01918D828D981731F0828DE80FF11DB0
:10024000858D90E008958FEF9FEF0895FC01918DCB
:10025000228D892F90E0805C9F4F821B91098F73C4
:1002600099270895FC01848DDF01A80FB11DA35AC1
:10027000BF4F2C91848D90E001968F739927848FC6
:10028000A689B7892C93A089B1898C9183708064E9
:100290008C93938D848D981306C00288F389E02D8A
:1002A00080818F7D80830895EF92FF920F931F933B
:1002B000CF93DF93EC0181E0888F9B8D8C8D981319
:1002C00005C0E889F989808185FD26C0F62E0B8D51
:1002D00010E00F5F1F4F0F731127E02E8C8DE81277
:1002E0000CC00FB607FCFACFE889F989808185FF39
:1002F000F5CFCE010E943201F1CF8B8DFE01E80FC8
:10030000F11DE35AFF4FF0829FB7F8940B8FEA89F3
:10031000FB89808180620AC09FB7F894EE89FF89CB
:100320006083E889F98980818370806480839FBFBE
:1003300081E090E0DF91CF911F910F91FF90EF90BE
:100340000895CF93DF93EC01888D8823C9F0EA8963
:10035000FB89808185FD05C0A889B9898C9186FDBE
:100360000FC00FB607FCF5CF808185FFF2CFA889BB
:10037000B9898C9185FFEDCFCE010E943201E7CF84
:10038000DF91CF9108950E94C5031F920F920FB67F
:100390000F9211240BB60F922F933F934F935F93BD
:1003A0006F937F938F939F93AF93BF93EF93FF933D
:1003B00084E192E00E943201FF91EF91BF91AF91F1
:1003C0009F918F917F916F915F914F913F912F916D
:1003D0000F900BBE0F900FBE0F901F9018951F929D
:1003E0000F920FB60F9211240BB60F922F938F938B
:1003F0009F93EF93FF93E0912402F0912502808177
:10040000E0912A02F0912B0282FD12C0908180912E
:100410002D028F5F8F7320912E02821751F0E09191
:100420002D02F0E0EC5EFD4F958F80932D0201C010
:100430008081FF91EF919F918F912F910F900BBE33
:100440000F900FBE0F901F9018951F920F920FB62E
:100450000F9211242F933F938F939F9380911202B9
:1004600090911302892B31F58091780020917900C9
:10047000237090E0922B813E21E092074CF42FEF05
:1004800033E03093990020939800880F991F0DC096
:100490008F5F9340919581959109880F991F909353
:1004A0009900809398008FEF93E09093A900809338
:1004B000A8000EC08091120290911302019741F49E
:1004C00010929900109298001092A9001092A80022
:1004D0009F918F913F912F910F900FBE0F901F9082
:1004E00018951F920F920FB60F9211240BB60F9210
:1004F0002F933F934F935F936F937F938F939F932C
:10050000AF93BF93EF93FF938091120290911302E8
:10051000019739F40E94B600109213021092120251
:100520000EC08091120290911302892B41F40E9417
:10053000B60081E090E09093130280931202FF9145
:10054000EF91BF91AF919F918F917F916F915F914B
:100550004F913F912F910F900BBE0F900FBE0F90B8
:100560001F901895E4E1F2E01382128288EE93E086
:10057000A0E0B0E084839583A683B78384E092E013
:100580009183808385EC90E09587848784EC90E06C
:100590009787868780EC90E0918B808B81EC90E050
:1005A000938B828B82EC90E0958B848B86EC90E031
:1005B000978B868B118E128E138E148E0895E09178
:1005C0002402F091250292E09083E0912002F091C4
:1005D00021021082E0912202F09123028FEC8083AD
:1005E00010922C02E0912802F091290286E080838B
:1005F000E0912602F0912702808180618083E09162
:100600002602F0912702808188608083E091260293
:10061000F0912702808180688083E0912602F0912A
:10062000270280818F7D80837894809180008E7FE7
:1006300080938000809180008D7F809380008091E6
:100640008100886080938100809181008F7E8093FB
:100650008100809181008A7F809381008091810058
:1006600082608093810010928900909388006B9A39
:1006700080919000836080939000809191008860C9
:100680008093910080919000806880939000809189
:100690009100816080939100809101018860809336
:1006A00001018091A00083608093A0008091A1004F
:1006B00088608093A1008091A00080688093A00052
:1006C0008091A10081608093A100809101018062EE
:1006D000809301018091020180628093020123983E
:1006E0002B9A8091680081608093680080916B00F4
:1006F000886080936B00809880917C0080648093F8
:100700007C0080917C008F7780937C0080917C00BE
:100710008F7D80937C0080917C00807E80937C0024
:1007200080917B00877F80937B0080917A00887F17
:1007300080937A0080917A00806280937A00809121
:100740007B00887F80937B0080917A008860809313
:100750007A0080917E00816080937E0080917A0093
:10076000806880937A0080917A00806480937A0018
:100770008091120290911302FBCFEE0FFF1F881F92
:100780008BBF0790F691E02D199481E090E0F894EA
:080790000C94CA03F894FFCF9A
:10079800000000005401C700F500A1012601040172
:0207A800180136
:00000001FF
